{
  "_format": "hh-sol-artifact-1",
  "contractName": "Swap2Cash",
  "sourceName": "contracts/Swap2Cash.sol",
  "abi": [
    {
      "anonymous": false,
      "inputs": [
        {
          "indexed": false,
          "internalType": "address",
          "name": "previousAdmin",
          "type": "address"
        },
        {
          "indexed": false,
          "internalType": "address",
          "name": "newAdmin",
          "type": "address"
        }
      ],
      "name": "AdminChanged",
      "type": "event"
    },
    {
      "anonymous": false,
      "inputs": [
        {
          "indexed": true,
          "internalType": "address",
          "name": "beacon",
          "type": "address"
        }
      ],
      "name": "BeaconUpgraded",
      "type": "event"
    },
    {
      "anonymous": false,
      "inputs": [
        {
          "indexed": false,
          "internalType": "address[]",
          "name": "tokens",
          "type": "address[]"
        },
        {
          "indexed": false,
          "internalType": "address",
          "name": "recipient",
          "type": "address"
        },
        {
          "indexed": false,
          "internalType": "uint256[]",
          "name": "amount",
          "type": "uint256[]"
        }
      ],
      "name": "EmergencyWithdrawn",
      "type": "event"
    },
    {
      "anonymous": false,
      "inputs": [
        {
          "indexed": false,
          "internalType": "uint8",
          "name": "version",
          "type": "uint8"
        }
      ],
      "name": "Initialized",
      "type": "event"
    },
    {
      "anonymous": false,
      "inputs": [
        {
          "indexed": false,
          "internalType": "bytes",
          "name": "_id",
          "type": "bytes"
        }
      ],
      "name": "OrderCanceled",
      "type": "event"
    },
    {
      "anonymous": false,
      "inputs": [
        {
          "indexed": false,
          "internalType": "bytes",
          "name": "_id",
          "type": "bytes"
        }
      ],
      "name": "OrderCreated",
      "type": "event"
    },
    {
      "anonymous": false,
      "inputs": [
        {
          "indexed": true,
          "internalType": "address",
          "name": "previousOwner",
          "type": "address"
        },
        {
          "indexed": true,
          "internalType": "address",
          "name": "newOwner",
          "type": "address"
        }
      ],
      "name": "OwnershipTransferred",
      "type": "event"
    },
    {
      "anonymous": false,
      "inputs": [
        {
          "indexed": true,
          "internalType": "address",
          "name": "implementation",
          "type": "address"
        }
      ],
      "name": "Upgraded",
      "type": "event"
    },
    {
      "anonymous": false,
      "inputs": [
        {
          "indexed": false,
          "internalType": "bytes",
          "name": "_id",
          "type": "bytes"
        }
      ],
      "name": "Withdrawn",
      "type": "event"
    },
    {
      "inputs": [
        {
          "internalType": "address",
          "name": "token",
          "type": "address"
        },
        {
          "internalType": "uint256",
          "name": "amount",
          "type": "uint256"
        },
        {
          "internalType": "address",
          "name": "recipient",
          "type": "address"
        },
        {
          "internalType": "bytes",
          "name": "userId",
          "type": "bytes"
        },
        {
          "internalType": "bytes",
          "name": "_id",
          "type": "bytes"
        },
        {
          "internalType": "bytes",
          "name": "signature",
          "type": "bytes"
        }
      ],
      "name": "cancelSellOrder",
      "outputs": [],
      "stateMutability": "nonpayable",
      "type": "function"
    },
    {
      "inputs": [
        {
          "internalType": "address",
          "name": "token",
          "type": "address"
        },
        {
          "internalType": "uint256",
          "name": "amount",
          "type": "uint256"
        },
        {
          "internalType": "bytes",
          "name": "_id",
          "type": "bytes"
        },
        {
          "internalType": "bytes",
          "name": "signature",
          "type": "bytes"
        }
      ],
      "name": "createSellOrder",
      "outputs": [],
      "stateMutability": "payable",
      "type": "function"
    },
    {
      "inputs": [
        {
          "internalType": "address[]",
          "name": "tokens",
          "type": "address[]"
        }
      ],
      "name": "emergencyWithdraw",
      "outputs": [],
      "stateMutability": "nonpayable",
      "type": "function"
    },
    {
      "inputs": [
        {
          "internalType": "bytes",
          "name": "userId",
          "type": "bytes"
        }
      ],
      "name": "getNonce",
      "outputs": [
        {
          "internalType": "uint256",
          "name": "",
          "type": "uint256"
        }
      ],
      "stateMutability": "view",
      "type": "function"
    },
    {
      "inputs": [],
      "name": "getSigner",
      "outputs": [
        {
          "internalType": "address",
          "name": "",
          "type": "address"
        }
      ],
      "stateMutability": "view",
      "type": "function"
    },
    {
      "inputs": [
        {
          "internalType": "address",
          "name": "_signer",
          "type": "address"
        }
      ],
      "name": "initialize",
      "outputs": [],
      "stateMutability": "nonpayable",
      "type": "function"
    },
    {
      "inputs": [
        {
          "internalType": "bytes",
          "name": "signature",
          "type": "bytes"
        }
      ],
      "name": "isValidOrder",
      "outputs": [
        {
          "internalType": "bool",
          "name": "",
          "type": "bool"
        }
      ],
      "stateMutability": "view",
      "type": "function"
    },
    {
      "inputs": [],
      "name": "owner",
      "outputs": [
        {
          "internalType": "address",
          "name": "",
          "type": "address"
        }
      ],
      "stateMutability": "view",
      "type": "function"
    },
    {
      "inputs": [],
      "name": "proxiableUUID",
      "outputs": [
        {
          "internalType": "bytes32",
          "name": "",
          "type": "bytes32"
        }
      ],
      "stateMutability": "view",
      "type": "function"
    },
    {
      "inputs": [],
      "name": "renounceOwnership",
      "outputs": [],
      "stateMutability": "nonpayable",
      "type": "function"
    },
    {
      "inputs": [
        {
          "internalType": "address",
          "name": "newSigner",
          "type": "address"
        }
      ],
      "name": "setSigner",
      "outputs": [],
      "stateMutability": "nonpayable",
      "type": "function"
    },
    {
      "inputs": [
        {
          "internalType": "address",
          "name": "newOwner",
          "type": "address"
        }
      ],
      "name": "transferOwnership",
      "outputs": [],
      "stateMutability": "nonpayable",
      "type": "function"
    },
    {
      "inputs": [
        {
          "internalType": "address",
          "name": "newImplementation",
          "type": "address"
        }
      ],
      "name": "upgradeTo",
      "outputs": [],
      "stateMutability": "nonpayable",
      "type": "function"
    },
    {
      "inputs": [
        {
          "internalType": "address",
          "name": "newImplementation",
          "type": "address"
        },
        {
          "internalType": "bytes",
          "name": "data",
          "type": "bytes"
        }
      ],
      "name": "upgradeToAndCall",
      "outputs": [],
      "stateMutability": "payable",
      "type": "function"
    },
    {
      "inputs": [
        {
          "internalType": "address[]",
          "name": "tokens",
          "type": "address[]"
        },
        {
          "internalType": "uint256[]",
          "name": "amounts",
          "type": "uint256[]"
        },
        {
          "internalType": "address",
          "name": "recipient",
          "type": "address"
        },
        {
          "internalType": "uint256",
          "name": "fee",
          "type": "uint256"
        },
        {
          "internalType": "bytes[]",
          "name": "data",
          "type": "bytes[]"
        }
      ],
      "name": "withdraw",
      "outputs": [],
      "stateMutability": "payable",
      "type": "function"
    }
  ],
  "bytecode": "0x60a06040523073ffffffffffffffffffffffffffffffffffffffff1660809073ffffffffffffffffffffffffffffffffffffffff1681525034801561004357600080fd5b5060805161458f61007b600039600081816108950152818161092301528181610ca201528181610d300152610e0b015261458f6000f3fe6080604052600436106100e85760003560e01c806352d1902d1161008a5780638da5cb5b116100595780638da5cb5b146102a3578063c4d66de8146102ce578063d4390d02146102f7578063f2fde38b14610320576100e8565b806352d1902d1461020d5780636c19e78314610238578063715018a6146102615780637ac3c02f14610278576100e8565b80634786a129116100c65780634786a1291461015b5780634cff8213146101775780634f1ef286146101b457806351d6e547146101d0576100e8565b806301c1dfba146100ed5780632a1224c7146101165780633659cfe614610132575b600080fd5b3480156100f957600080fd5b50610114600480360381019061010f9190612797565b610349565b005b610130600480360381019061012b9190612924565b610458565b005b34801561013e57600080fd5b5061015960048036038101906101549190612a00565b610893565b005b61017560048036038101906101709190612a83565b610a1b565b005b34801561018357600080fd5b5061019e60048036038101906101999190612c6b565b610c6a565b6040516101ab9190612ccf565b60405180910390f35b6101ce60048036038101906101c99190612cea565b610ca0565b005b3480156101dc57600080fd5b506101f760048036038101906101f29190612d46565b610ddc565b6040516102049190612da2565b60405180910390f35b34801561021957600080fd5b50610222610e07565b60405161022f9190612dd6565b60405180910390f35b34801561024457600080fd5b5061025f600480360381019061025a9190612a00565b610ec0565b005b34801561026d57600080fd5b50610276610f9c565b005b34801561028457600080fd5b5061028d610fb0565b60405161029a9190612e00565b60405180910390f35b3480156102af57600080fd5b506102b8610fda565b6040516102c59190612e00565b60405180910390f35b3480156102da57600080fd5b506102f560048036038101906102f09190612a00565b611004565b005b34801561030357600080fd5b5061031e60048036038101906103199190612e1b565b611194565b005b34801561032c57600080fd5b5061034760048036038101906103429190612a00565b61147e565b005b610351611501565b600082829050905060008167ffffffffffffffff81111561037557610374612b40565b5b6040519080825280602002602001820160405280156103a35781602001602082028036833780820191505090505b50905060005b82811015610414576103e28585838181106103c7576103c6612f0a565b5b90506020020160208101906103dc9190612a00565b3361157f565b8282815181106103f5576103f4612f0a565b5b602002602001018181525050808061040c90612f68565b9150506103a9565b507f74045662c357b115a035d0e751b17315badffe796d1a4c812616eae84e1f06c78484338460405161044a9493929190613131565b60405180910390a150505050565b61046061162e565b60006040518061010001604052803073ffffffffffffffffffffffffffffffffffffffff1681526020018673ffffffffffffffffffffffffffffffffffffffff16815260200160fd858560008181106104bc576104bb612f0a565b5b90506020028101906104ce9190613187565b6040516104dc92919061321a565b90815260200160405180910390205481526020018581526020018a8a80806020026020016040519081016040528093929190818152602001838360200280828437600081840152601f19601f820116905080830192505050505050508152602001888880806020026020016040519081016040528093929190818152602001838360200280828437600081840152601f19601f8201169050808301925050505050505081526020018484600081811061059857610597612f0a565b5b90506020028101906105aa9190613187565b8080601f016020809104026020016040519081016040528093929190818152602001838380828437600081840152601f19601f8201169050808301925050505050505081526020018484600181811061060657610605612f0a565b5b90506020028101906106189190613187565b8080601f016020809104026020016040519081016040528093929190818152602001838380828437600081840152601f19601f82011690508083019250505050505050815250905060008383600281811061067657610675612f0a565b5b90506020028101906106889190613187565b8080601f016020809104026020016040519081016040528093929190818152602001838380828437600081840152601f19601f82011690508083019250505050505050905084341461070f576040517f08c379a0000000000000000000000000000000000000000000000000000000008152600401610706906132b6565b60405180910390fd5b600061071a8361167d565b90506107498160fb60009054906101000a900473ffffffffffffffffffffffffffffffffffffffff16846116ff565b610788576040517f08c379a000000000000000000000000000000000000000000000000000000000815260040161077f90613322565b60405180910390fd5b61079182611742565b60fd8360c001516040516107a591906133a8565b908152602001604051809103902060008154809291906107c490612f68565b91905055506000836080015151905060005b818110156108415761082e856000015186602001518760800151848151811061080257610801612f0a565b5b60200260200101518860a00151858151811061082157610820612f0a565b5b60200260200101516117e8565b808061083990612f68565b9150506107d6565b507f7728c63e67116fe82cd52b8b586155b1ac9b52385638941975cd4591cb25eada8460e001516040516108759190613409565b60405180910390a150505050610889611966565b5050505050505050565b7f000000000000000000000000000000000000000000000000000000000000000073ffffffffffffffffffffffffffffffffffffffff163073ffffffffffffffffffffffffffffffffffffffff1603610921576040517f08c379a00000000000000000000000000000000000000000000000000000000081526004016109189061349d565b60405180910390fd5b7f000000000000000000000000000000000000000000000000000000000000000073ffffffffffffffffffffffffffffffffffffffff16610960611970565b73ffffffffffffffffffffffffffffffffffffffff16146109b6576040517f08c379a00000000000000000000000000000000000000000000000000000000081526004016109ad9061352f565b60405180910390fd5b6109bf816119c7565b610a1881600067ffffffffffffffff8111156109de576109dd612b40565b5b6040519080825280601f01601f191660200182016040528015610a105781602001600182028036833780820191505090505b5060006119d2565b50565b610a2361162e565b60006040518060a001604052803373ffffffffffffffffffffffffffffffffffffffff1681526020013073ffffffffffffffffffffffffffffffffffffffff1681526020018873ffffffffffffffffffffffffffffffffffffffff16815260200187815260200186868080601f016020809104026020016040519081016040528093929190818152602001838380828437600081840152601f19601f8201169050808301925050505050505081525090506000610adf82611b40565b9050610b528160fb60009054906101000a900473ffffffffffffffffffffffffffffffffffffffff1686868080601f016020809104026020016040519081016040528093929190818152602001838380828437600081840152601f19601f820116905080830192505050505050506116ff565b610b91576040517f08c379a0000000000000000000000000000000000000000000000000000000008152600401610b889061359b565b60405180910390fd5b610bde84848080601f016020809104026020016040519081016040528093929190818152602001838380828437600081840152601f19601f82011690508083019250505050505050611742565b600073ffffffffffffffffffffffffffffffffffffffff168873ffffffffffffffffffffffffffffffffffffffff1614610c1f57610c1e33308a8a6117e8565b5b7fe4a6407979da9518dfbc88bfe7f0f53a52c4c16e1f54a90bf1ff721d341ef4438686604051610c509291906135e8565b60405180910390a15050610c62611966565b505050505050565b600060fc82604051610c7c91906133a8565b908152602001604051809103902060009054906101000a900460ff16159050919050565b7f000000000000000000000000000000000000000000000000000000000000000073ffffffffffffffffffffffffffffffffffffffff163073ffffffffffffffffffffffffffffffffffffffff1603610d2e576040517f08c379a0000000000000000000000000000000000000000000000000000000008152600401610d259061349d565b60405180910390fd5b7f000000000000000000000000000000000000000000000000000000000000000073ffffffffffffffffffffffffffffffffffffffff16610d6d611970565b73ffffffffffffffffffffffffffffffffffffffff1614610dc3576040517f08c379a0000000000000000000000000000000000000000000000000000000008152600401610dba9061352f565b60405180910390fd5b610dcc826119c7565b610dd8828260016119d2565b5050565b600060fd8383604051610df092919061321a565b908152602001604051809103902054905092915050565b60007f000000000000000000000000000000000000000000000000000000000000000073ffffffffffffffffffffffffffffffffffffffff163073ffffffffffffffffffffffffffffffffffffffff1614610e97576040517f08c379a0000000000000000000000000000000000000000000000000000000008152600401610e8e9061367e565b60405180910390fd5b7f360894a13ba1a3210667c828492db98dca3e2076cc3735a920a3ca505d382bbc60001b905090565b610ec8611501565b60fb60009054906101000a900473ffffffffffffffffffffffffffffffffffffffff1673ffffffffffffffffffffffffffffffffffffffff168173ffffffffffffffffffffffffffffffffffffffff1603610f58576040517f08c379a0000000000000000000000000000000000000000000000000000000008152600401610f4f906136ea565b60405180910390fd5b8060fb60006101000a81548173ffffffffffffffffffffffffffffffffffffffff021916908373ffffffffffffffffffffffffffffffffffffffff16021790555050565b610fa4611501565b610fae6000611b99565b565b600060fb60009054906101000a900473ffffffffffffffffffffffffffffffffffffffff16905090565b6000603360009054906101000a900473ffffffffffffffffffffffffffffffffffffffff16905090565b60008060019054906101000a900460ff161590508080156110355750600160008054906101000a900460ff1660ff16105b80611062575061104430611c5f565b1580156110615750600160008054906101000a900460ff1660ff16145b5b6110a1576040517f08c379a00000000000000000000000000000000000000000000000000000000081526004016110989061377c565b60405180910390fd5b60016000806101000a81548160ff021916908360ff16021790555080156110de576001600060016101000a81548160ff0219169083151502179055505b6110e6611c82565b6110ee611cdb565b6110f6611d2c565b8160fb60006101000a81548173ffffffffffffffffffffffffffffffffffffffff021916908373ffffffffffffffffffffffffffffffffffffffff16021790555080156111905760008060016101000a81548160ff0219169083151502179055507f7f26b83ff96e1f2b6a682f133852f6798a09c465da95921460cefb3847402498600160405161118791906137ee565b60405180910390a15b5050565b61119c61162e565b60006040518060e001604052803073ffffffffffffffffffffffffffffffffffffffff1681526020018973ffffffffffffffffffffffffffffffffffffffff1681526020018b73ffffffffffffffffffffffffffffffffffffffff1681526020018a815260200160fd898960405161121592919061321a565b908152602001604051809103902054815260200188888080601f016020809104026020016040519081016040528093929190818152602001838380828437600081840152601f19601f82011690508083019250505050505050815260200186868080601f016020809104026020016040519081016040528093929190818152602001838380828437600081840152601f19601f82011690508083019250505050505050815250905060006112c882611d85565b905061133b8160fb60009054906101000a900473ffffffffffffffffffffffffffffffffffffffff1686868080601f016020809104026020016040519081016040528093929190818152602001838380828437600081840152601f19601f820116905080830192505050505050506116ff565b61137a576040517f08c379a000000000000000000000000000000000000000000000000000000000815260040161137190613322565b60405180910390fd5b6113c784848080601f016020809104026020016040519081016040528093929190818152602001838380828437600081840152601f19601f82011690508083019250505050505050611742565b61141486868080601f016020809104026020016040519081016040528093929190818152602001838380828437600081840152601f19601f82011690508083019250505050505050611742565b61143082600001518360200151846040015185606001516117e8565b7f979cc0d10eb3ee69811d6aa77d1b05b132dc250ffc033258da32102fdf771dbe86866040516114619291906135e8565b60405180910390a15050611473611966565b505050505050505050565b611486611501565b600073ffffffffffffffffffffffffffffffffffffffff168173ffffffffffffffffffffffffffffffffffffffff16036114f5576040517f08c379a00000000000000000000000000000000000000000000000000000000081526004016114ec9061387b565b60405180910390fd5b6114fe81611b99565b50565b611509611dea565b73ffffffffffffffffffffffffffffffffffffffff16611527610fda565b73ffffffffffffffffffffffffffffffffffffffff161461157d576040517f08c379a0000000000000000000000000000000000000000000000000000000008152600401611574906138e7565b60405180910390fd5b565b60008273ffffffffffffffffffffffffffffffffffffffff166370a08231306040518263ffffffff1660e01b81526004016115ba9190612e00565b602060405180830381865afa1580156115d7573d6000803e3d6000fd5b505050506040513d601f19601f820116820180604052508101906115fb919061391c565b905061162882828573ffffffffffffffffffffffffffffffffffffffff16611df29092919063ffffffff16565b92915050565b600260655403611673576040517f08c379a000000000000000000000000000000000000000000000000000000000815260040161166a90613995565b60405180910390fd5b6002606581905550565b60008160a00151518260800151511461169557600080fd5b6000826000015183602001518460400151856060015186608001518760a001518860c001518960e001516040516020016116d6989796959493929190613b66565b6040516020818303038152906040528051906020012090506116f781611e78565b915050919050565b60008273ffffffffffffffffffffffffffffffffffffffff166117228584611eae565b73ffffffffffffffffffffffffffffffffffffffff161490509392505050565b60fc8160405161175291906133a8565b908152602001604051809103902060009054906101000a900460ff16156117ae576040517f08c379a00000000000000000000000000000000000000000000000000000000081526004016117a590613c34565b60405180910390fd5b600060fc826040516117c091906133a8565b908152602001604051809103902060006101000a81548160ff02191690831515021790555050565b600073ffffffffffffffffffffffffffffffffffffffff168273ffffffffffffffffffffffffffffffffffffffff16036118ce5760003373ffffffffffffffffffffffffffffffffffffffff168260405161184290613c7a565b60006040518083038185875af1925050503d806000811461187f576040519150601f19603f3d011682016040523d82523d6000602084013e611884565b606091505b50509050806118c8576040517f08c379a00000000000000000000000000000000000000000000000000000000081526004016118bf90613d01565b60405180910390fd5b50611960565b3073ffffffffffffffffffffffffffffffffffffffff168473ffffffffffffffffffffffffffffffffffffffff16036119315761192c83828473ffffffffffffffffffffffffffffffffffffffff16611df29092919063ffffffff16565b61195f565b61195e8484838573ffffffffffffffffffffffffffffffffffffffff16611ed5909392919063ffffffff16565b5b5b50505050565b6001606581905550565b600061199e7f360894a13ba1a3210667c828492db98dca3e2076cc3735a920a3ca505d382bbc60001b611f5e565b60000160009054906101000a900473ffffffffffffffffffffffffffffffffffffffff16905090565b6119cf611501565b50565b6119fe7f4910fdfa16fed3260ed0e7147f7cc6da11a60208b5b9406d12a635614ffd914360001b611f68565b60000160009054906101000a900460ff1615611a2257611a1d83611f72565b611b3b565b8273ffffffffffffffffffffffffffffffffffffffff166352d1902d6040518163ffffffff1660e01b8152600401602060405180830381865afa925050508015611a8a57506040513d601f19601f82011682018060405250810190611a879190613d4d565b60015b611ac9576040517f08c379a0000000000000000000000000000000000000000000000000000000008152600401611ac090613dec565b60405180910390fd5b7f360894a13ba1a3210667c828492db98dca3e2076cc3735a920a3ca505d382bbc60001b8114611b2e576040517f08c379a0000000000000000000000000000000000000000000000000000000008152600401611b2590613e7e565b60405180910390fd5b50611b3a83838361202b565b5b505050565b60008082600001518360200151846040015185606001518660800151604051602001611b70959493929190613e9e565b604051602081830303815290604052805190602001209050611b9181611e78565b915050919050565b6000603360009054906101000a900473ffffffffffffffffffffffffffffffffffffffff16905081603360006101000a81548173ffffffffffffffffffffffffffffffffffffffff021916908373ffffffffffffffffffffffffffffffffffffffff1602179055508173ffffffffffffffffffffffffffffffffffffffff168173ffffffffffffffffffffffffffffffffffffffff167f8be0079c531659141344cd1fd0a4f28419497f9722a3daafe3b4186f6b6457e060405160405180910390a35050565b6000808273ffffffffffffffffffffffffffffffffffffffff163b119050919050565b600060019054906101000a900460ff16611cd1576040517f08c379a0000000000000000000000000000000000000000000000000000000008152600401611cc890613f6b565b60405180910390fd5b611cd9612057565b565b600060019054906101000a900460ff16611d2a576040517f08c379a0000000000000000000000000000000000000000000000000000000008152600401611d2190613f6b565b60405180910390fd5b565b600060019054906101000a900460ff16611d7b576040517f08c379a0000000000000000000000000000000000000000000000000000000008152600401611d7290613f6b565b60405180910390fd5b611d836120b8565b565b600080826000015183602001518460400151856060015186608001518760a001518860c00151604051602001611dc19796959493929190613f8b565b604051602081830303815290604052805190602001209050611de281611e78565b915050919050565b600033905090565b611e738363a9059cbb60e01b8484604051602401611e11929190614004565b604051602081830303815290604052907bffffffffffffffffffffffffffffffffffffffffffffffffffffffff19166020820180517bffffffffffffffffffffffffffffffffffffffffffffffffffffffff8381831617835250505050612111565b505050565b60007f19457468657265756d205369676e6564204d6573736167653a0a33320000000060005281601c52603c6000209050919050565b6000806000611ebd85856121d9565b91509150611eca8161222a565b819250505092915050565b611f58846323b872dd60e01b858585604051602401611ef69392919061402d565b604051602081830303815290604052907bffffffffffffffffffffffffffffffffffffffffffffffffffffffff19166020820180517bffffffffffffffffffffffffffffffffffffffffffffffffffffffff8381831617835250505050612111565b50505050565b6000819050919050565b6000819050919050565b611f7b81611c5f565b611fba576040517f08c379a0000000000000000000000000000000000000000000000000000000008152600401611fb1906140d6565b60405180910390fd5b80611fe77f360894a13ba1a3210667c828492db98dca3e2076cc3735a920a3ca505d382bbc60001b611f5e565b60000160006101000a81548173ffffffffffffffffffffffffffffffffffffffff021916908373ffffffffffffffffffffffffffffffffffffffff16021790555050565b61203483612390565b6000825111806120415750805b156120525761205083836123df565b505b505050565b600060019054906101000a900460ff166120a6576040517f08c379a000000000000000000000000000000000000000000000000000000000815260040161209d90613f6b565b60405180910390fd5b6120b66120b1611dea565b611b99565b565b600060019054906101000a900460ff16612107576040517f08c379a00000000000000000000000000000000000000000000000000000000081526004016120fe90613f6b565b60405180910390fd5b6001606581905550565b6000612173826040518060400160405280602081526020017f5361666545524332303a206c6f772d6c6576656c2063616c6c206661696c65648152508573ffffffffffffffffffffffffffffffffffffffff1661240c9092919063ffffffff16565b90506000815114806121955750808060200190518101906121949190614122565b5b6121d4576040517f08c379a00000000000000000000000000000000000000000000000000000000081526004016121cb906141c1565b60405180910390fd5b505050565b600080604183510361221a5760008060006020860151925060408601519150606086015160001a905061220e87828585612424565b94509450505050612223565b60006002915091505b9250929050565b6000600481111561223e5761223d6141e1565b5b816004811115612251576122506141e1565b5b031561238d576001600481111561226b5761226a6141e1565b5b81600481111561227e5761227d6141e1565b5b036122be576040517f08c379a00000000000000000000000000000000000000000000000000000000081526004016122b59061425c565b60405180910390fd5b600260048111156122d2576122d16141e1565b5b8160048111156122e5576122e46141e1565b5b03612325576040517f08c379a000000000000000000000000000000000000000000000000000000000815260040161231c906142c8565b60405180910390fd5b60036004811115612339576123386141e1565b5b81600481111561234c5761234b6141e1565b5b0361238c576040517f08c379a00000000000000000000000000000000000000000000000000000000081526004016123839061435a565b60405180910390fd5b5b50565b61239981611f72565b8073ffffffffffffffffffffffffffffffffffffffff167fbc7cd75a20ee27fd9adebab32041f755214dbc6bffa90cc0225b39da2e5c2d3b60405160405180910390a250565b6060612404838360405180606001604052806027815260200161453360279139612506565b905092915050565b606061241b848460008561258c565b90509392505050565b6000807f7fffffffffffffffffffffffffffffff5d576e7357a4501ddfe92f46681b20a08360001c111561245f5760006003915091506124fd565b6000600187878787604051600081526020016040526040516124849493929190614389565b6020604051602081039080840390855afa1580156124a6573d6000803e3d6000fd5b505050602060405103519050600073ffffffffffffffffffffffffffffffffffffffff168173ffffffffffffffffffffffffffffffffffffffff16036124f4576000600192509250506124fd565b80600092509250505b94509492505050565b60606000808573ffffffffffffffffffffffffffffffffffffffff168560405161253091906133a8565b600060405180830381855af49150503d806000811461256b576040519150601f19603f3d011682016040523d82523d6000602084013e612570565b606091505b509150915061258186838387612659565b925050509392505050565b6060824710156125d1576040517f08c379a00000000000000000000000000000000000000000000000000000000081526004016125c890614440565b60405180910390fd5b6000808673ffffffffffffffffffffffffffffffffffffffff1685876040516125fa91906133a8565b60006040518083038185875af1925050503d8060008114612637576040519150601f19603f3d011682016040523d82523d6000602084013e61263c565b606091505b509150915061264d87838387612659565b92505050949350505050565b606083156126bb5760008351036126b35761267385611c5f565b6126b2576040517f08c379a00000000000000000000000000000000000000000000000000000000081526004016126a9906144ac565b60405180910390fd5b5b8290506126c6565b6126c583836126ce565b5b949350505050565b6000825111156126e15781518083602001fd5b806040517f08c379a00000000000000000000000000000000000000000000000000000000081526004016127159190614510565b60405180910390fd5b6000604051905090565b600080fd5b600080fd5b600080fd5b600080fd5b600080fd5b60008083601f84011261275757612756612732565b5b8235905067ffffffffffffffff81111561277457612773612737565b5b6020830191508360208202830111156127905761278f61273c565b5b9250929050565b600080602083850312156127ae576127ad612728565b5b600083013567ffffffffffffffff8111156127cc576127cb61272d565b5b6127d885828601612741565b92509250509250929050565b60008083601f8401126127fa576127f9612732565b5b8235905067ffffffffffffffff81111561281757612816612737565b5b6020830191508360208202830111156128335761283261273c565b5b9250929050565b600073ffffffffffffffffffffffffffffffffffffffff82169050919050565b60006128658261283a565b9050919050565b6128758161285a565b811461288057600080fd5b50565b6000813590506128928161286c565b92915050565b6000819050919050565b6128ab81612898565b81146128b657600080fd5b50565b6000813590506128c8816128a2565b92915050565b60008083601f8401126128e4576128e3612732565b5b8235905067ffffffffffffffff81111561290157612900612737565b5b60208301915083602082028301111561291d5761291c61273c565b5b9250929050565b60008060008060008060008060a0898b03121561294457612943612728565b5b600089013567ffffffffffffffff8111156129625761296161272d565b5b61296e8b828c01612741565b9850985050602089013567ffffffffffffffff8111156129915761299061272d565b5b61299d8b828c016127e4565b965096505060406129b08b828c01612883565b94505060606129c18b828c016128b9565b935050608089013567ffffffffffffffff8111156129e2576129e161272d565b5b6129ee8b828c016128ce565b92509250509295985092959890939650565b600060208284031215612a1657612a15612728565b5b6000612a2484828501612883565b91505092915050565b60008083601f840112612a4357612a42612732565b5b8235905067ffffffffffffffff811115612a6057612a5f612737565b5b602083019150836001820283011115612a7c57612a7b61273c565b5b9250929050565b60008060008060008060808789031215612aa057612a9f612728565b5b6000612aae89828a01612883565b9650506020612abf89828a016128b9565b955050604087013567ffffffffffffffff811115612ae057612adf61272d565b5b612aec89828a01612a2d565b9450945050606087013567ffffffffffffffff811115612b0f57612b0e61272d565b5b612b1b89828a01612a2d565b92509250509295509295509295565b600080fd5b6000601f19601f8301169050919050565b7f4e487b7100000000000000000000000000000000000000000000000000000000600052604160045260246000fd5b612b7882612b2f565b810181811067ffffffffffffffff82111715612b9757612b96612b40565b5b80604052505050565b6000612baa61271e565b9050612bb68282612b6f565b919050565b600067ffffffffffffffff821115612bd657612bd5612b40565b5b612bdf82612b2f565b9050602081019050919050565b82818337600083830152505050565b6000612c0e612c0984612bbb565b612ba0565b905082815260208101848484011115612c2a57612c29612b2a565b5b612c35848285612bec565b509392505050565b600082601f830112612c5257612c51612732565b5b8135612c62848260208601612bfb565b91505092915050565b600060208284031215612c8157612c80612728565b5b600082013567ffffffffffffffff811115612c9f57612c9e61272d565b5b612cab84828501612c3d565b91505092915050565b60008115159050919050565b612cc981612cb4565b82525050565b6000602082019050612ce46000830184612cc0565b92915050565b60008060408385031215612d0157612d00612728565b5b6000612d0f85828601612883565b925050602083013567ffffffffffffffff811115612d3057612d2f61272d565b5b612d3c85828601612c3d565b9150509250929050565b60008060208385031215612d5d57612d5c612728565b5b600083013567ffffffffffffffff811115612d7b57612d7a61272d565b5b612d8785828601612a2d565b92509250509250929050565b612d9c81612898565b82525050565b6000602082019050612db76000830184612d93565b92915050565b6000819050919050565b612dd081612dbd565b82525050565b6000602082019050612deb6000830184612dc7565b92915050565b612dfa8161285a565b82525050565b6000602082019050612e156000830184612df1565b92915050565b600080600080600080600080600060c08a8c031215612e3d57612e3c612728565b5b6000612e4b8c828d01612883565b9950506020612e5c8c828d016128b9565b9850506040612e6d8c828d01612883565b97505060608a013567ffffffffffffffff811115612e8e57612e8d61272d565b5b612e9a8c828d01612a2d565b965096505060808a013567ffffffffffffffff811115612ebd57612ebc61272d565b5b612ec98c828d01612a2d565b945094505060a08a013567ffffffffffffffff811115612eec57612eeb61272d565b5b612ef88c828d01612a2d565b92509250509295985092959850929598565b7f4e487b7100000000000000000000000000000000000000000000000000000000600052603260045260246000fd5b7f4e487b7100000000000000000000000000000000000000000000000000000000600052601160045260246000fd5b6000612f7382612898565b91507fffffffffffffffffffffffffffffffffffffffffffffffffffffffffffffffff8203612fa557612fa4612f39565b5b600182019050919050565b600082825260208201905092915050565b6000819050919050565b612fd48161285a565b82525050565b6000612fe68383612fcb565b60208301905092915050565b60006130016020840184612883565b905092915050565b6000602082019050919050565b60006130228385612fb0565b935061302d82612fc1565b8060005b85811015613066576130438284612ff2565b61304d8882612fda565b975061305883613009565b925050600181019050613031565b5085925050509392505050565b600081519050919050565b600082825260208201905092915050565b6000819050602082019050919050565b6130a881612898565b82525050565b60006130ba838361309f565b60208301905092915050565b6000602082019050919050565b60006130de82613073565b6130e8818561307e565b93506130f38361308f565b8060005b8381101561312457815161310b88826130ae565b9750613116836130c6565b9250506001810190506130f7565b5085935050505092915050565b6000606082019050818103600083015261314c818688613016565b905061315b6020830185612df1565b818103604083015261316d81846130d3565b905095945050505050565b600080fd5b600080fd5b600080fd5b600080833560016020038436030381126131a4576131a3613178565b5b80840192508235915067ffffffffffffffff8211156131c6576131c561317d565b5b6020830192506001820236038313156131e2576131e1613182565b5b509250929050565b600081905092915050565b600061320183856131ea565b935061320e838584612bec565b82840190509392505050565b60006132278284866131f5565b91508190509392505050565b600082825260208201905092915050565b7f5377617032436173683a206d67732e76616c756520616e642066656520646f2060008201527f6e6f74206d617463680000000000000000000000000000000000000000000000602082015250565b60006132a0602983613233565b91506132ab82613244565b604082019050919050565b600060208201905081810360008301526132cf81613293565b9050919050565b7f5377617032436173683a20696e76616c69642064617461000000000000000000600082015250565b600061330c601783613233565b9150613317826132d6565b602082019050919050565b6000602082019050818103600083015261333b816132ff565b9050919050565b600081519050919050565b60005b8381101561336b578082015181840152602081019050613350565b60008484015250505050565b600061338282613342565b61338c81856131ea565b935061339c81856020860161334d565b80840191505092915050565b60006133b48284613377565b915081905092915050565b600082825260208201905092915050565b60006133db82613342565b6133e581856133bf565b93506133f581856020860161334d565b6133fe81612b2f565b840191505092915050565b6000602082019050818103600083015261342381846133d0565b905092915050565b7f46756e6374696f6e206d7573742062652063616c6c6564207468726f7567682060008201527f64656c656761746563616c6c0000000000000000000000000000000000000000602082015250565b6000613487602c83613233565b91506134928261342b565b604082019050919050565b600060208201905081810360008301526134b68161347a565b9050919050565b7f46756e6374696f6e206d7573742062652063616c6c6564207468726f7567682060008201527f6163746976652070726f78790000000000000000000000000000000000000000602082015250565b6000613519602c83613233565b9150613524826134bd565b604082019050919050565b600060208201905081810360008301526135488161350c565b9050919050565b7f5377617032436173683a20496e76616c69642064617461000000000000000000600082015250565b6000613585601783613233565b91506135908261354f565b602082019050919050565b600060208201905081810360008301526135b481613578565b9050919050565b60006135c783856133bf565b93506135d4838584612bec565b6135dd83612b2f565b840190509392505050565b600060208201905081810360008301526136038184866135bb565b90509392505050565b7f555550535570677261646561626c653a206d757374206e6f742062652063616c60008201527f6c6564207468726f7567682064656c656761746563616c6c0000000000000000602082015250565b6000613668603883613233565b91506136738261360c565b604082019050919050565b600060208201905081810360008301526136978161365b565b9050919050565b7f53657474696e673a2053616d6520616464726573736573000000000000000000600082015250565b60006136d4601783613233565b91506136df8261369e565b602082019050919050565b60006020820190508181036000830152613703816136c7565b9050919050565b7f496e697469616c697a61626c653a20636f6e747261637420697320616c72656160008201527f647920696e697469616c697a6564000000000000000000000000000000000000602082015250565b6000613766602e83613233565b91506137718261370a565b604082019050919050565b6000602082019050818103600083015261379581613759565b9050919050565b6000819050919050565b600060ff82169050919050565b6000819050919050565b60006137d86137d36137ce8461379c565b6137b3565b6137a6565b9050919050565b6137e8816137bd565b82525050565b600060208201905061380360008301846137df565b92915050565b7f4f776e61626c653a206e6577206f776e657220697320746865207a65726f206160008201527f6464726573730000000000000000000000000000000000000000000000000000602082015250565b6000613865602683613233565b915061387082613809565b604082019050919050565b6000602082019050818103600083015261389481613858565b9050919050565b7f4f776e61626c653a2063616c6c6572206973206e6f7420746865206f776e6572600082015250565b60006138d1602083613233565b91506138dc8261389b565b602082019050919050565b60006020820190508181036000830152613900816138c4565b9050919050565b600081519050613916816128a2565b92915050565b60006020828403121561393257613931612728565b5b600061394084828501613907565b91505092915050565b7f5265656e7472616e637947756172643a207265656e7472616e742063616c6c00600082015250565b600061397f601f83613233565b915061398a82613949565b602082019050919050565b600060208201905081810360008301526139ae81613972565b9050919050565b60008160601b9050919050565b60006139cd826139b5565b9050919050565b60006139df826139c2565b9050919050565b6139f76139f28261285a565b6139d4565b82525050565b6000819050919050565b613a18613a1382612898565b6139fd565b82525050565b600081519050919050565b600081905092915050565b6000819050602082019050919050565b613a4d8161285a565b82525050565b6000613a5f8383613a44565b60208301905092915050565b6000602082019050919050565b6000613a8382613a1e565b613a8d8185613a29565b9350613a9883613a34565b8060005b83811015613ac9578151613ab08882613a53565b9750613abb83613a6b565b925050600181019050613a9c565b5085935050505092915050565b600081905092915050565b613aea81612898565b82525050565b6000613afc8383613ae1565b60208301905092915050565b6000613b1382613073565b613b1d8185613ad6565b9350613b288361308f565b8060005b83811015613b59578151613b408882613af0565b9750613b4b836130c6565b925050600181019050613b2c565b5085935050505092915050565b6000613b72828b6139e6565b601482019150613b82828a6139e6565b601482019150613b928289613a07565b602082019150613ba28288613a07565b602082019150613bb28287613a78565b9150613bbe8286613b08565b9150613bca8285613377565b9150613bd68284613377565b91508190509998505050505050505050565b7f5377617032436173683a20696e76616c6964207369676e617475726500000000600082015250565b6000613c1e601c83613233565b9150613c2982613be8565b602082019050919050565b60006020820190508181036000830152613c4d81613c11565b9050919050565b50565b6000613c646000836131ea565b9150613c6f82613c54565b600082019050919050565b6000613c8582613c57565b9150819050919050565b7f5377617032436173683a204661696c656420746f207472616e7366657220457460008201527f6865720000000000000000000000000000000000000000000000000000000000602082015250565b6000613ceb602383613233565b9150613cf682613c8f565b604082019050919050565b60006020820190508181036000830152613d1a81613cde565b9050919050565b613d2a81612dbd565b8114613d3557600080fd5b50565b600081519050613d4781613d21565b92915050565b600060208284031215613d6357613d62612728565b5b6000613d7184828501613d38565b91505092915050565b7f45524331393637557067726164653a206e657720696d706c656d656e7461746960008201527f6f6e206973206e6f742055555053000000000000000000000000000000000000602082015250565b6000613dd6602e83613233565b9150613de182613d7a565b604082019050919050565b60006020820190508181036000830152613e0581613dc9565b9050919050565b7f45524331393637557067726164653a20756e737570706f727465642070726f7860008201527f6961626c65555549440000000000000000000000000000000000000000000000602082015250565b6000613e68602983613233565b9150613e7382613e0c565b604082019050919050565b60006020820190508181036000830152613e9781613e5b565b9050919050565b6000613eaa82886139e6565b601482019150613eba82876139e6565b601482019150613eca82866139e6565b601482019150613eda8285613a07565b602082019150613eea8284613377565b91508190509695505050505050565b7f496e697469616c697a61626c653a20636f6e7472616374206973206e6f74206960008201527f6e697469616c697a696e67000000000000000000000000000000000000000000602082015250565b6000613f55602b83613233565b9150613f6082613ef9565b604082019050919050565b60006020820190508181036000830152613f8481613f48565b9050919050565b6000613f97828a6139e6565b601482019150613fa782896139e6565b601482019150613fb782886139e6565b601482019150613fc78287613a07565b602082019150613fd78286613a07565b602082019150613fe78285613377565b9150613ff38284613377565b915081905098975050505050505050565b60006040820190506140196000830185612df1565b6140266020830184612d93565b9392505050565b60006060820190506140426000830186612df1565b61404f6020830185612df1565b61405c6040830184612d93565b949350505050565b7f455243313936373a206e657720696d706c656d656e746174696f6e206973206e60008201527f6f74206120636f6e747261637400000000000000000000000000000000000000602082015250565b60006140c0602d83613233565b91506140cb82614064565b604082019050919050565b600060208201905081810360008301526140ef816140b3565b9050919050565b6140ff81612cb4565b811461410a57600080fd5b50565b60008151905061411c816140f6565b92915050565b60006020828403121561413857614137612728565b5b60006141468482850161410d565b91505092915050565b7f5361666545524332303a204552433230206f7065726174696f6e20646964206e60008201527f6f74207375636365656400000000000000000000000000000000000000000000602082015250565b60006141ab602a83613233565b91506141b68261414f565b604082019050919050565b600060208201905081810360008301526141da8161419e565b9050919050565b7f4e487b7100000000000000000000000000000000000000000000000000000000600052602160045260246000fd5b7f45434453413a20696e76616c6964207369676e61747572650000000000000000600082015250565b6000614246601883613233565b915061425182614210565b602082019050919050565b6000602082019050818103600083015261427581614239565b9050919050565b7f45434453413a20696e76616c6964207369676e6174757265206c656e67746800600082015250565b60006142b2601f83613233565b91506142bd8261427c565b602082019050919050565b600060208201905081810360008301526142e1816142a5565b9050919050565b7f45434453413a20696e76616c6964207369676e6174757265202773272076616c60008201527f7565000000000000000000000000000000000000000000000000000000000000602082015250565b6000614344602283613233565b915061434f826142e8565b604082019050919050565b6000602082019050818103600083015261437381614337565b9050919050565b614383816137a6565b82525050565b600060808201905061439e6000830187612dc7565b6143ab602083018661437a565b6143b86040830185612dc7565b6143c56060830184612dc7565b95945050505050565b7f416464726573733a20696e73756666696369656e742062616c616e636520666f60008201527f722063616c6c0000000000000000000000000000000000000000000000000000602082015250565b600061442a602683613233565b9150614435826143ce565b604082019050919050565b600060208201905081810360008301526144598161441d565b9050919050565b7f416464726573733a2063616c6c20746f206e6f6e2d636f6e7472616374000000600082015250565b6000614496601d83613233565b91506144a182614460565b602082019050919050565b600060208201905081810360008301526144c581614489565b9050919050565b600081519050919050565b60006144e2826144cc565b6144ec8185613233565b93506144fc81856020860161334d565b61450581612b2f565b840191505092915050565b6000602082019050818103600083015261452a81846144d7565b90509291505056fe416464726573733a206c6f772d6c6576656c2064656c65676174652063616c6c206661696c6564a26469706673582212207b925cfb4d4478c486b1828f110a7ea39de912ac530b21258f1469e8205294c564736f6c63430008120033",
  "linkReferences": {},
  "deployedLinkReferences": {}
}